{
  "_format": "hh-sol-artifact-1",
  "contractName": "EcoToken",
  "sourceName": "contracts/EcoToken.sol",
  "abi": [
    {
      "inputs": [
        {
          "internalType": "uint256",
          "name": "_baseValueEth",
          "type": "uint256"
        },
        {
          "internalType": "uint256",
          "name": "_baseValueEcoToken",
          "type": "uint256"
        },
        {
          "internalType": "uint256",
          "name": "_rewardRate",
          "type": "uint256"
        }
      ],
      "stateMutability": "nonpayable",
      "type": "constructor"
    },
    {
      "inputs": [],
      "name": "baseValueEcoToken",
      "outputs": [
        {
          "internalType": "uint256",
          "name": "",
          "type": "uint256"
        }
      ],
      "stateMutability": "view",
      "type": "function"
    },
    {
      "inputs": [],
      "name": "baseValueEth",
      "outputs": [
        {
          "internalType": "uint256",
          "name": "",
          "type": "uint256"
        }
      ],
      "stateMutability": "view",
      "type": "function"
    },
    {
      "inputs": [
        {
          "internalType": "string",
          "name": "_description",
          "type": "string"
        },
        {
          "internalType": "uint256",
          "name": "_reward",
          "type": "uint256"
        }
      ],
      "name": "createEvent",
      "outputs": [],
      "stateMutability": "nonpayable",
      "type": "function"
    },
    {
      "inputs": [],
      "name": "getBusinessStatus",
      "outputs": [
        {
          "internalType": "bool",
          "name": "",
          "type": "bool"
        }
      ],
      "stateMutability": "view",
      "type": "function"
    },
    {
      "inputs": [],
      "name": "getClientBalance",
      "outputs": [
        {
          "internalType": "uint256",
          "name": "",
          "type": "uint256"
        }
      ],
      "stateMutability": "view",
      "type": "function"
    },
    {
      "inputs": [
        {
          "internalType": "uint256",
          "name": "_eventIndex",
          "type": "uint256"
        }
      ],
      "name": "getCreatedEvent",
      "outputs": [
        {
          "components": [
            {
              "internalType": "uint256",
              "name": "id",
              "type": "uint256"
            },
            {
              "internalType": "string",
              "name": "description",
              "type": "string"
            },
            {
              "internalType": "uint256",
              "name": "reward",
              "type": "uint256"
            },
            {
              "internalType": "address",
              "name": "organizer",
              "type": "address"
            },
            {
              "internalType": "int256",
              "name": "rating",
              "type": "int256"
            }
          ],
          "internalType": "struct EcoToken.Event",
          "name": "",
          "type": "tuple"
        }
      ],
      "stateMutability": "view",
      "type": "function"
    },
    {
      "inputs": [],
      "name": "getCreatedEventCount",
      "outputs": [
        {
          "internalType": "uint256",
          "name": "",
          "type": "uint256"
        }
      ],
      "stateMutability": "view",
      "type": "function"
    },
    {
      "inputs": [],
      "name": "getCreatedEvents",
      "outputs": [
        {
          "components": [
            {
              "internalType": "uint256",
              "name": "id",
              "type": "uint256"
            },
            {
              "internalType": "string",
              "name": "description",
              "type": "string"
            },
            {
              "internalType": "uint256",
              "name": "reward",
              "type": "uint256"
            },
            {
              "internalType": "address",
              "name": "organizer",
              "type": "address"
            },
            {
              "internalType": "int256",
              "name": "rating",
              "type": "int256"
            }
          ],
          "internalType": "struct EcoToken.Event[]",
          "name": "",
          "type": "tuple[]"
        }
      ],
      "stateMutability": "view",
      "type": "function"
    },
    {
      "inputs": [
        {
          "internalType": "uint256",
          "name": "_eventId",
          "type": "uint256"
        }
      ],
      "name": "getEvent",
      "outputs": [
        {
          "components": [
            {
              "internalType": "uint256",
              "name": "id",
              "type": "uint256"
            },
            {
              "internalType": "string",
              "name": "description",
              "type": "string"
            },
            {
              "internalType": "uint256",
              "name": "reward",
              "type": "uint256"
            },
            {
              "internalType": "address",
              "name": "organizer",
              "type": "address"
            },
            {
              "internalType": "int256",
              "name": "rating",
              "type": "int256"
            }
          ],
          "internalType": "struct EcoToken.Event",
          "name": "",
          "type": "tuple"
        }
      ],
      "stateMutability": "view",
      "type": "function"
    },
    {
      "inputs": [],
      "name": "getEventCount",
      "outputs": [
        {
          "internalType": "uint256",
          "name": "",
          "type": "uint256"
        }
      ],
      "stateMutability": "view",
      "type": "function"
    },
    {
      "inputs": [],
      "name": "getEvents",
      "outputs": [
        {
          "components": [
            {
              "internalType": "uint256",
              "name": "id",
              "type": "uint256"
            },
            {
              "internalType": "string",
              "name": "description",
              "type": "string"
            },
            {
              "internalType": "uint256",
              "name": "reward",
              "type": "uint256"
            },
            {
              "internalType": "address",
              "name": "organizer",
              "type": "address"
            },
            {
              "internalType": "int256",
              "name": "rating",
              "type": "int256"
            }
          ],
          "internalType": "struct EcoToken.Event[]",
          "name": "",
          "type": "tuple[]"
        }
      ],
      "stateMutability": "view",
      "type": "function"
    },
    {
      "inputs": [
        {
          "internalType": "uint256",
          "name": "_eventIndex",
          "type": "uint256"
        }
      ],
      "name": "getParticipatedEvent",
      "outputs": [
        {
          "components": [
            {
              "internalType": "uint256",
              "name": "id",
              "type": "uint256"
            },
            {
              "internalType": "string",
              "name": "description",
              "type": "string"
            },
            {
              "internalType": "uint256",
              "name": "reward",
              "type": "uint256"
            },
            {
              "internalType": "address",
              "name": "organizer",
              "type": "address"
            },
            {
              "internalType": "int256",
              "name": "rating",
              "type": "int256"
            }
          ],
          "internalType": "struct EcoToken.Event",
          "name": "",
          "type": "tuple"
        }
      ],
      "stateMutability": "view",
      "type": "function"
    },
    {
      "inputs": [],
      "name": "getParticipatedEventCount",
      "outputs": [
        {
          "internalType": "uint256",
          "name": "",
          "type": "uint256"
        }
      ],
      "stateMutability": "view",
      "type": "function"
    },
    {
      "inputs": [],
      "name": "getParticipatedEvents",
      "outputs": [
        {
          "components": [
            {
              "internalType": "uint256",
              "name": "id",
              "type": "uint256"
            },
            {
              "internalType": "string",
              "name": "description",
              "type": "string"
            },
            {
              "internalType": "uint256",
              "name": "reward",
              "type": "uint256"
            },
            {
              "internalType": "address",
              "name": "organizer",
              "type": "address"
            },
            {
              "internalType": "int256",
              "name": "rating",
              "type": "int256"
            }
          ],
          "internalType": "struct EcoToken.Event[]",
          "name": "",
          "type": "tuple[]"
        }
      ],
      "stateMutability": "view",
      "type": "function"
    },
    {
      "inputs": [
        {
          "internalType": "uint256",
          "name": "_eventId",
          "type": "uint256"
        }
      ],
      "name": "getVoteStatus",
      "outputs": [
        {
          "internalType": "int8",
          "name": "",
          "type": "int8"
        }
      ],
      "stateMutability": "view",
      "type": "function"
    },
    {
      "inputs": [
        {
          "internalType": "address",
          "name": "_participant",
          "type": "address"
        },
        {
          "internalType": "uint256",
          "name": "_eventId",
          "type": "uint256"
        }
      ],
      "name": "markParticipant",
      "outputs": [],
      "stateMutability": "nonpayable",
      "type": "function"
    },
    {
      "inputs": [],
      "name": "registerAsBusiness",
      "outputs": [],
      "stateMutability": "payable",
      "type": "function"
    },
    {
      "inputs": [],
      "name": "rewardRate",
      "outputs": [
        {
          "internalType": "uint256",
          "name": "",
          "type": "uint256"
        }
      ],
      "stateMutability": "view",
      "type": "function"
    },
    {
      "inputs": [
        {
          "internalType": "address",
          "name": "_to",
          "type": "address"
        },
        {
          "internalType": "uint256",
          "name": "_amount",
          "type": "uint256"
        }
      ],
      "name": "transferEcotokens",
      "outputs": [],
      "stateMutability": "nonpayable",
      "type": "function"
    },
    {
      "inputs": [
        {
          "internalType": "uint256",
          "name": "_eventId",
          "type": "uint256"
        },
        {
          "internalType": "int8",
          "name": "_vote",
          "type": "int8"
        }
      ],
      "name": "voteForEvent",
      "outputs": [],
      "stateMutability": "nonpayable",
      "type": "function"
    }
  ],
  "bytecode": "0x60806040523480156200001157600080fd5b506040516200388c3803806200388c83398181016040528101906200003791906200006c565b826000819055508160018190555080600281905550505050620000e6565b6000815190506200006681620000cc565b92915050565b6000806000606084860312156200008257600080fd5b6000620000928682870162000055565b9350506020620000a58682870162000055565b9250506040620000b88682870162000055565b9150509250925092565b6000819050919050565b620000d781620000c2565b8114620000e357600080fd5b50565b61379680620000f66000396000f3fe60806040526004361061011f5760003560e01c80637b0a47ee116100a0578063c8ac59c111610064578063c8ac59c1146103d9578063d9e48f5c14610416578063e74e5de214610441578063e8316c6e1461044b578063f604423a146104765761011f565b80637b0a47ee146103065780639a4d438514610331578063aad891bb1461035a578063b0aacf0114610385578063b912452c146103ae5761011f565b8063611d3f3b116100e7578063611d3f3b1461020d57806363a4ad571461023857806369dd559d146102755780636d1884e0146102a0578063715f3693146102dd5761011f565b80630519bb83146101245780631113c15f1461016157806312487a591461018c57806325a9d450146101b7578063404aa8f9146101e2575b600080fd5b34801561013057600080fd5b5061014b60048036038101906101469190612a44565b61049f565b6040516101589190613144565b60405180910390f35b34801561016d57600080fd5b50610176610633565b6040516101839190613301565b60405180910390f35b34801561019857600080fd5b506101a1610639565b6040516101ae9190613301565b60405180910390f35b3480156101c357600080fd5b506101cc61063f565b6040516101d99190613301565b60405180910390f35b3480156101ee57600080fd5b506101f7610689565b6040516102049190613107565b60405180910390f35b34801561021957600080fd5b506102226107ee565b60405161022f9190613301565b60405180910390f35b34801561024457600080fd5b5061025f600480360381019061025a9190612a44565b6108c8565b60405161026c91906132df565b60405180910390f35b34801561028157600080fd5b5061028a610bc4565b6040516102979190613129565b60405180910390f35b3480156102ac57600080fd5b506102c760048036038101906102c29190612a44565b610c1b565b6040516102d491906132df565b60405180910390f35b3480156102e957600080fd5b5061030460048036038101906102ff91906129b4565b610dca565b005b34801561031257600080fd5b5061031b611151565b6040516103289190613301565b60405180910390f35b34801561033d57600080fd5b50610358600480360381019061035391906129f0565b611157565b005b34801561036657600080fd5b5061036f61134c565b60405161037c9190613107565b60405180910390f35b34801561039157600080fd5b506103ac60048036038101906103a79190612a6d565b611724565b005b3480156103ba57600080fd5b506103c3611ac2565b6040516103d09190613301565b60405180910390f35b3480156103e557600080fd5b5061040060048036038101906103fb9190612a44565b611b9b565b60405161040d91906132df565b60405180910390f35b34801561042257600080fd5b5061042b611e98565b6040516104389190613301565b60405180910390f35b610449611ea5565b005b34801561045757600080fd5b50610460611ff2565b60405161046d9190613107565b60405180910390f35b34801561048257600080fd5b5061049d600480360381019061049891906129b4565b6123c9565b005b6000600360003373ffffffffffffffffffffffffffffffffffffffff1673ffffffffffffffffffffffffffffffffffffffff16815260200190815260200160002060010160009054906101000a900460ff1615610531576040517f08c379a00000000000000000000000000000000000000000000000000000000081526004016105289061323f565b60405180910390fd5b600460003373ffffffffffffffffffffffffffffffffffffffff1673ffffffffffffffffffffffffffffffffffffffff168152602001908152602001600020600083815260200190815260200160002060009054906101000a900460ff166105ce576040517f08c379a00000000000000000000000000000000000000000000000000000000081526004016105c59061329f565b60405180910390fd5b600560003373ffffffffffffffffffffffffffffffffffffffff1673ffffffffffffffffffffffffffffffffffffffff168152602001908152602001600020600083815260200190815260200160002060009054906101000a900460000b9050919050565b60005481565b60015481565b6000600360003373ffffffffffffffffffffffffffffffffffffffff1673ffffffffffffffffffffffffffffffffffffffff16815260200190815260200160002060000154905090565b60606006805480602002602001604051908101604052809291908181526020016000905b828210156107e557838290600052602060002090600502016040518060a0016040529081600082015481526020016001820180546106ea906135d3565b80601f0160208091040260200160405190810160405280929190818152602001828054610716906135d3565b80156107635780601f1061073857610100808354040283529160200191610763565b820191906000526020600020905b81548152906001019060200180831161074657829003601f168201915b50505050508152602001600282015481526020016003820160009054906101000a900473ffffffffffffffffffffffffffffffffffffffff1673ffffffffffffffffffffffffffffffffffffffff1673ffffffffffffffffffffffffffffffffffffffff168152602001600482015481525050815260200190600101906106ad565b50505050905090565b6000600360003373ffffffffffffffffffffffffffffffffffffffff1673ffffffffffffffffffffffffffffffffffffffff16815260200190815260200160002060010160009054906101000a900460ff1615610880576040517f08c379a00000000000000000000000000000000000000000000000000000000081526004016108779061323f565b60405180910390fd5b600860003373ffffffffffffffffffffffffffffffffffffffff1673ffffffffffffffffffffffffffffffffffffffff16815260200190815260200160002080549050905090565b6108d0612825565b600360003373ffffffffffffffffffffffffffffffffffffffff1673ffffffffffffffffffffffffffffffffffffffff16815260200190815260200160002060010160009054906101000a900460ff1661095f576040517f08c379a0000000000000000000000000000000000000000000000000000000008152600401610956906131ff565b60405180910390fd5b600760003373ffffffffffffffffffffffffffffffffffffffff1673ffffffffffffffffffffffffffffffffffffffff1681526020019081526020016000208054905082106109e3576040517f08c379a00000000000000000000000000000000000000000000000000000000081526004016109da9061325f565b60405180910390fd5b6006600760003373ffffffffffffffffffffffffffffffffffffffff1673ffffffffffffffffffffffffffffffffffffffff1681526020019081526020016000208381548110610a5c577f4e487b7100000000000000000000000000000000000000000000000000000000600052603260045260246000fd5b906000526020600020015481548110610a9e577f4e487b7100000000000000000000000000000000000000000000000000000000600052603260045260246000fd5b90600052602060002090600502016040518060a001604052908160008201548152602001600182018054610ad1906135d3565b80601f0160208091040260200160405190810160405280929190818152602001828054610afd906135d3565b8015610b4a5780601f10610b1f57610100808354040283529160200191610b4a565b820191906000526020600020905b815481529060010190602001808311610b2d57829003601f168201915b50505050508152602001600282015481526020016003820160009054906101000a900473ffffffffffffffffffffffffffffffffffffffff1673ffffffffffffffffffffffffffffffffffffffff1673ffffffffffffffffffffffffffffffffffffffff1681526020016004820154815250509050919050565b6000600360003373ffffffffffffffffffffffffffffffffffffffff1673ffffffffffffffffffffffffffffffffffffffff16815260200190815260200160002060010160009054906101000a900460ff16905090565b610c23612825565b6006805490508210610c6a576040517f08c379a0000000000000000000000000000000000000000000000000000000008152600401610c619061325f565b60405180910390fd5b60068281548110610ca4577f4e487b7100000000000000000000000000000000000000000000000000000000600052603260045260246000fd5b90600052602060002090600502016040518060a001604052908160008201548152602001600182018054610cd7906135d3565b80601f0160208091040260200160405190810160405280929190818152602001828054610d03906135d3565b8015610d505780601f10610d2557610100808354040283529160200191610d50565b820191906000526020600020905b815481529060010190602001808311610d3357829003601f168201915b50505050508152602001600282015481526020016003820160009054906101000a900473ffffffffffffffffffffffffffffffffffffffff1673ffffffffffffffffffffffffffffffffffffffff1673ffffffffffffffffffffffffffffffffffffffff1681526020016004820154815250509050919050565b600360003373ffffffffffffffffffffffffffffffffffffffff1673ffffffffffffffffffffffffffffffffffffffff16815260200190815260200160002060010160009054906101000a900460ff1615610e5a576040517f08c379a0000000000000000000000000000000000000000000000000000000008152600401610e519061323f565b60405180910390fd5b600360008373ffffffffffffffffffffffffffffffffffffffff1673ffffffffffffffffffffffffffffffffffffffff16815260200190815260200160002060010160009054906101000a900460ff16610ee9576040517f08c379a0000000000000000000000000000000000000000000000000000000008152600401610ee09061319f565b60405180910390fd5b80600360003373ffffffffffffffffffffffffffffffffffffffff1673ffffffffffffffffffffffffffffffffffffffff1681526020019081526020016000206000015410158015610f3b5750600081115b610f7a576040517f08c379a0000000000000000000000000000000000000000000000000000000008152600401610f719061317f565b60405180910390fd5b600080600360008573ffffffffffffffffffffffffffffffffffffffff1673ffffffffffffffffffffffffffffffffffffffff16815260200190815260200160002060020154131561101957600254600360008573ffffffffffffffffffffffffffffffffffffffff1673ffffffffffffffffffffffffffffffffffffffff1681526020019081526020016000206002015461101691906134cd565b90505b81600360003373ffffffffffffffffffffffffffffffffffffffff1673ffffffffffffffffffffffffffffffffffffffff1681526020019081526020016000206000015461106791906134fe565b600360003373ffffffffffffffffffffffffffffffffffffffff1673ffffffffffffffffffffffffffffffffffffffff168152602001908152602001600020600001819055508082600360008673ffffffffffffffffffffffffffffffffffffffff1673ffffffffffffffffffffffffffffffffffffffff168152602001908152602001600020600001546110fc9190613477565b6111069190613477565b600360008573ffffffffffffffffffffffffffffffffffffffff1673ffffffffffffffffffffffffffffffffffffffff16815260200190815260200160002060000181905550505050565b60025481565b600360003373ffffffffffffffffffffffffffffffffffffffff1673ffffffffffffffffffffffffffffffffffffffff16815260200190815260200160002060010160009054906101000a900460ff166111e6576040517f08c379a00000000000000000000000000000000000000000000000000000000081526004016111dd906131ff565b60405180910390fd5b60006040518060a0016040528060068054905081526020018481526020018381526020013373ffffffffffffffffffffffffffffffffffffffff16815260200160008152509050600681908060018154018082558091505060019003906000526020600020906005020160009091909190915060008201518160000155602082015181600101908051906020019061127f92919061286a565b506040820151816002015560608201518160030160006101000a81548173ffffffffffffffffffffffffffffffffffffffff021916908373ffffffffffffffffffffffffffffffffffffffff160217905550608082015181600401555050600760003373ffffffffffffffffffffffffffffffffffffffff1673ffffffffffffffffffffffffffffffffffffffff16815260200190815260200160002081600001519080600181540180825580915050600190039060005260206000200160009091909190915055505050565b6060600360003373ffffffffffffffffffffffffffffffffffffffff1673ffffffffffffffffffffffffffffffffffffffff16815260200190815260200160002060010160009054906101000a900460ff16156113de576040517f08c379a00000000000000000000000000000000000000000000000000000000081526004016113d59061323f565b60405180910390fd5b6000600860003373ffffffffffffffffffffffffffffffffffffffff1673ffffffffffffffffffffffffffffffffffffffff1681526020019081526020016000208054905067ffffffffffffffff811115611462577f4e487b7100000000000000000000000000000000000000000000000000000000600052604160045260246000fd5b60405190808252806020026020018201604052801561149b57816020015b611488612825565b8152602001906001900390816114805790505b50905060005b600860003373ffffffffffffffffffffffffffffffffffffffff1673ffffffffffffffffffffffffffffffffffffffff1681526020019081526020016000208054905081101561171c576006600860003373ffffffffffffffffffffffffffffffffffffffff1673ffffffffffffffffffffffffffffffffffffffff1681526020019081526020016000208281548110611564577f4e487b7100000000000000000000000000000000000000000000000000000000600052603260045260246000fd5b9060005260206000200154815481106115a6577f4e487b7100000000000000000000000000000000000000000000000000000000600052603260045260246000fd5b90600052602060002090600502016040518060a0016040529081600082015481526020016001820180546115d9906135d3565b80601f0160208091040260200160405190810160405280929190818152602001828054611605906135d3565b80156116525780601f1061162757610100808354040283529160200191611652565b820191906000526020600020905b81548152906001019060200180831161163557829003601f168201915b50505050508152602001600282015481526020016003820160009054906101000a900473ffffffffffffffffffffffffffffffffffffffff1673ffffffffffffffffffffffffffffffffffffffff1673ffffffffffffffffffffffffffffffffffffffff1681526020016004820154815250508282815181106116fe577f4e487b7100000000000000000000000000000000000000000000000000000000600052603260045260246000fd5b6020026020010181905250808061171490613605565b9150506114a1565b508091505090565b600360003373ffffffffffffffffffffffffffffffffffffffff1673ffffffffffffffffffffffffffffffffffffffff16815260200190815260200160002060010160009054906101000a900460ff16156117b4576040517f08c379a00000000000000000000000000000000000000000000000000000000081526004016117ab9061323f565b60405180910390fd5b7fffffffffffffffffffffffffffffffffffffffffffffffffffffffffffffffff8160000b14806117e8575060018160000b145b611827576040517f08c379a000000000000000000000000000000000000000000000000000000000815260040161181e906132bf565b60405180910390fd5b600460003373ffffffffffffffffffffffffffffffffffffffff1673ffffffffffffffffffffffffffffffffffffffff168152602001908152602001600020600083815260200190815260200160002060009054906101000a900460ff166118c4576040517f08c379a00000000000000000000000000000000000000000000000000000000081526004016118bb9061321f565b60405180910390fd5b6000600560003373ffffffffffffffffffffffffffffffffffffffff1673ffffffffffffffffffffffffffffffffffffffff168152602001908152602001600020600084815260200190815260200160002060009054906101000a900460000b60000b14611967576040517f08c379a000000000000000000000000000000000000000000000000000000000815260040161195e9061315f565b60405180910390fd5b6000600683815481106119a3577f4e487b7100000000000000000000000000000000000000000000000000000000600052603260045260246000fd5b906000526020600020906005020190508160000b8160040160008282546119ca91906133e3565b925050819055508160000b600360008360030160009054906101000a900473ffffffffffffffffffffffffffffffffffffffff1673ffffffffffffffffffffffffffffffffffffffff1673ffffffffffffffffffffffffffffffffffffffff1681526020019081526020016000206002016000828254611a4a91906133e3565b9250508190555081600560003373ffffffffffffffffffffffffffffffffffffffff1673ffffffffffffffffffffffffffffffffffffffff168152602001908152602001600020600085815260200190815260200160002060006101000a81548160ff021916908360000b60ff160217905550505050565b6000600360003373ffffffffffffffffffffffffffffffffffffffff1673ffffffffffffffffffffffffffffffffffffffff16815260200190815260200160002060010160009054906101000a900460ff16611b53576040517f08c379a0000000000000000000000000000000000000000000000000000000008152600401611b4a906131ff565b60405180910390fd5b600760003373ffffffffffffffffffffffffffffffffffffffff1673ffffffffffffffffffffffffffffffffffffffff16815260200190815260200160002080549050905090565b611ba3612825565b600360003373ffffffffffffffffffffffffffffffffffffffff1673ffffffffffffffffffffffffffffffffffffffff16815260200190815260200160002060010160009054906101000a900460ff1615611c33576040517f08c379a0000000000000000000000000000000000000000000000000000000008152600401611c2a9061323f565b60405180910390fd5b600860003373ffffffffffffffffffffffffffffffffffffffff1673ffffffffffffffffffffffffffffffffffffffff168152602001908152602001600020805490508210611cb7576040517f08c379a0000000000000000000000000000000000000000000000000000000008152600401611cae9061325f565b60405180910390fd5b6006600860003373ffffffffffffffffffffffffffffffffffffffff1673ffffffffffffffffffffffffffffffffffffffff1681526020019081526020016000208381548110611d30577f4e487b7100000000000000000000000000000000000000000000000000000000600052603260045260246000fd5b906000526020600020015481548110611d72577f4e487b7100000000000000000000000000000000000000000000000000000000600052603260045260246000fd5b90600052602060002090600502016040518060a001604052908160008201548152602001600182018054611da5906135d3565b80601f0160208091040260200160405190810160405280929190818152602001828054611dd1906135d3565b8015611e1e5780601f10611df357610100808354040283529160200191611e1e565b820191906000526020600020905b815481529060010190602001808311611e0157829003601f168201915b50505050508152602001600282015481526020016003820160009054906101000a900473ffffffffffffffffffffffffffffffffffffffff1673ffffffffffffffffffffffffffffffffffffffff1673ffffffffffffffffffffffffffffffffffffffff1681526020016004820154815250509050919050565b6000600680549050905090565b600360003373ffffffffffffffffffffffffffffffffffffffff1673ffffffffffffffffffffffffffffffffffffffff16815260200190815260200160002060010160009054906101000a900460ff1615611f35576040517f08c379a0000000000000000000000000000000000000000000000000000000008152600401611f2c9061323f565b60405180910390fd5b600054341015611f7a576040517f08c379a0000000000000000000000000000000000000000000000000000000008152600401611f719061327f565b60405180910390fd5b6000600360003373ffffffffffffffffffffffffffffffffffffffff1673ffffffffffffffffffffffffffffffffffffffff1681526020019081526020016000209050600154816000018190555060018160010160006101000a81548160ff0219169083151502179055506000816002018190555050565b6060600360003373ffffffffffffffffffffffffffffffffffffffff1673ffffffffffffffffffffffffffffffffffffffff16815260200190815260200160002060010160009054906101000a900460ff16612083576040517f08c379a000000000000000000000000000000000000000000000000000000000815260040161207a906131ff565b60405180910390fd5b6000600760003373ffffffffffffffffffffffffffffffffffffffff1673ffffffffffffffffffffffffffffffffffffffff1681526020019081526020016000208054905067ffffffffffffffff811115612107577f4e487b7100000000000000000000000000000000000000000000000000000000600052604160045260246000fd5b60405190808252806020026020018201604052801561214057816020015b61212d612825565b8152602001906001900390816121255790505b50905060005b600760003373ffffffffffffffffffffffffffffffffffffffff1673ffffffffffffffffffffffffffffffffffffffff168152602001908152602001600020805490508110156123c1576006600760003373ffffffffffffffffffffffffffffffffffffffff1673ffffffffffffffffffffffffffffffffffffffff1681526020019081526020016000208281548110612209577f4e487b7100000000000000000000000000000000000000000000000000000000600052603260045260246000fd5b90600052602060002001548154811061224b577f4e487b7100000000000000000000000000000000000000000000000000000000600052603260045260246000fd5b90600052602060002090600502016040518060a00160405290816000820154815260200160018201805461227e906135d3565b80601f01602080910402602001604051908101604052809291908181526020018280546122aa906135d3565b80156122f75780601f106122cc576101008083540402835291602001916122f7565b820191906000526020600020905b8154815290600101906020018083116122da57829003601f168201915b50505050508152602001600282015481526020016003820160009054906101000a900473ffffffffffffffffffffffffffffffffffffffff1673ffffffffffffffffffffffffffffffffffffffff1673ffffffffffffffffffffffffffffffffffffffff1681526020016004820154815250508282815181106123a3577f4e487b7100000000000000000000000000000000000000000000000000000000600052603260045260246000fd5b602002602001018190525080806123b990613605565b915050612146565b508091505090565b600360003373ffffffffffffffffffffffffffffffffffffffff1673ffffffffffffffffffffffffffffffffffffffff16815260200190815260200160002060010160009054906101000a900460ff16612458576040517f08c379a000000000000000000000000000000000000000000000000000000000815260040161244f906131ff565b60405180910390fd5b600060068281548110612494577f4e487b7100000000000000000000000000000000000000000000000000000000600052603260045260246000fd5b906000526020600020906005020190503373ffffffffffffffffffffffffffffffffffffffff168160030160009054906101000a900473ffffffffffffffffffffffffffffffffffffffff1673ffffffffffffffffffffffffffffffffffffffff1614612536576040517f08c379a000000000000000000000000000000000000000000000000000000000815260040161252d906131bf565b60405180910390fd5b600360008473ffffffffffffffffffffffffffffffffffffffff1673ffffffffffffffffffffffffffffffffffffffff16815260200190815260200160002060010160009054906101000a900460ff16156125c6576040517f08c379a00000000000000000000000000000000000000000000000000000000081526004016125bd906131df565b60405180910390fd5b8060020154600360008360030160009054906101000a900473ffffffffffffffffffffffffffffffffffffffff1673ffffffffffffffffffffffffffffffffffffffff1673ffffffffffffffffffffffffffffffffffffffff168152602001908152602001600020600001541015612673576040517f08c379a000000000000000000000000000000000000000000000000000000000815260040161266a9061317f565b60405180910390fd5b6001600460008573ffffffffffffffffffffffffffffffffffffffff1673ffffffffffffffffffffffffffffffffffffffff168152602001908152602001600020600084815260200190815260200160002060006101000a81548160ff021916908315150217905550600860008473ffffffffffffffffffffffffffffffffffffffff1673ffffffffffffffffffffffffffffffffffffffff1681526020019081526020016000208290806001815401808255809150506001900390600052602060002001600090919091909150558060020154600360008573ffffffffffffffffffffffffffffffffffffffff1673ffffffffffffffffffffffffffffffffffffffff16815260200190815260200160002060000160008282546127989190613477565b925050819055508060020154600360008360030160009054906101000a900473ffffffffffffffffffffffffffffffffffffffff1673ffffffffffffffffffffffffffffffffffffffff1673ffffffffffffffffffffffffffffffffffffffff168152602001908152602001600020600001600082825461281991906134fe565b92505081905550505050565b6040518060a00160405280600081526020016060815260200160008152602001600073ffffffffffffffffffffffffffffffffffffffff168152602001600081525090565b828054612876906135d3565b90600052602060002090601f01602090048101928261289857600085556128df565b82601f106128b157805160ff19168380011785556128df565b828001600101855582156128df579182015b828111156128de5782518255916020019190600101906128c3565b5b5090506128ec91906128f0565b5090565b5b808211156129095760008160009055506001016128f1565b5090565b600061292061291b8461334d565b61331c565b90508281526020810184848401111561293857600080fd5b612943848285613591565b509392505050565b60008135905061295a8161371b565b92915050565b60008135905061296f81613732565b92915050565b600082601f83011261298657600080fd5b813561299684826020860161290d565b91505092915050565b6000813590506129ae81613749565b92915050565b600080604083850312156129c757600080fd5b60006129d58582860161294b565b92505060206129e68582860161299f565b9150509250929050565b60008060408385031215612a0357600080fd5b600083013567ffffffffffffffff811115612a1d57600080fd5b612a2985828601612975565b9250506020612a3a8582860161299f565b9150509250929050565b600060208284031215612a5657600080fd5b6000612a648482850161299f565b91505092915050565b60008060408385031215612a8057600080fd5b6000612a8e8582860161299f565b9250506020612a9f85828601612960565b9150509250929050565b6000612ab58383612ffd565b905092915050565b612ac681613532565b82525050565b6000612ad78261338d565b612ae181856133b0565b935083602082028501612af38561337d565b8060005b85811015612b2f5784840389528151612b108582612aa9565b9450612b1b836133a3565b925060208a01995050600181019050612af7565b50829750879550505050505092915050565b612b4a81613544565b82525050565b612b5981613550565b82525050565b612b688161355a565b82525050565b6000612b7982613398565b612b8381856133c1565b9350612b938185602086016135a0565b612b9c8161370a565b840191505092915050565b6000612bb46023836133d2565b91507f596f752063616e206f6e6c7920766f7465206f6e636520666f7220616e20657660008301527f656e7400000000000000000000000000000000000000000000000000000000006020830152604082019050919050565b6000612c1a6016836133d2565b91507f496e73756666696369656e742045636f546f6b656e73000000000000000000006000830152602082019050919050565b6000612c5a6034836133d2565b91507f596f752063616e206f6e6c79207472616e736665722045636f546f6b656e732060008301527f746f206120627573696e65737320636c69656e740000000000000000000000006020830152604082019050919050565b6000612cc0602e836133d2565b91507f4f6e6c7920746865206576656e74206f7267616e697a65722063616e206d617260008301527f6b207061727469636970616e74730000000000000000000000000000000000006020830152604082019050919050565b6000612d266037836133d2565b91507f4f6e6c79206e6f6e2d627573696e65737320636c69656e74732063616e20626560008301527f206d61726b6564206173207061727469636970616e74730000000000000000006020830152604082019050919050565b6000612d8c602c836133d2565b91507f4f6e6c7920627573696e65737320636c69656e74732063616e2063616c6c207460008301527f6869732066756e6374696f6e00000000000000000000000000000000000000006020830152604082019050919050565b6000612df2602f836133d2565b91507f596f75206d75737420706172746963697061746520696e20746865206576656e60008301527f74206265666f726520766f74696e6700000000000000000000000000000000006020830152604082019050919050565b6000612e586030836133d2565b91507f4f6e6c79206e6f6e2d627573696e65737320636c69656e74732063616e20636160008301527f6c6c20746869732066756e6374696f6e000000000000000000000000000000006020830152604082019050919050565b6000612ebe6014836133d2565b91507f4576656e7420646f6573206e6f742065786973740000000000000000000000006000830152602082019050919050565b6000612efe6028836133d2565b91507f496e73756666696369656e742045746865722073656e7420666f72207265676960008301527f7374726174696f6e0000000000000000000000000000000000000000000000006020830152604082019050919050565b6000612f646026836133d2565b91507f596f752068617665206e6f742070617274696369706174656420696e2074686560008301527f206576656e7400000000000000000000000000000000000000000000000000006020830152604082019050919050565b6000612fca6012836133d2565b91507f496e76616c696420766f74652076616c756500000000000000000000000000006000830152602082019050919050565b600060a08301600083015161301560008601826130e9565b506020830151848203602086015261302d8282612b6e565b915050604083015161304260408601826130e9565b5060608301516130556060860182612abd565b5060808301516130686080860182612b50565b508091505092915050565b600060a08301600083015161308b60008601826130e9565b50602083015184820360208601526130a38282612b6e565b91505060408301516130b860408601826130e9565b5060608301516130cb6060860182612abd565b5060808301516130de6080860182612b50565b508091505092915050565b6130f281613587565b82525050565b61310181613587565b82525050565b600060208201905081810360008301526131218184612acc565b905092915050565b600060208201905061313e6000830184612b41565b92915050565b60006020820190506131596000830184612b5f565b92915050565b6000602082019050818103600083015261317881612ba7565b9050919050565b6000602082019050818103600083015261319881612c0d565b9050919050565b600060208201905081810360008301526131b881612c4d565b9050919050565b600060208201905081810360008301526131d881612cb3565b9050919050565b600060208201905081810360008301526131f881612d19565b9050919050565b6000602082019050818103600083015261321881612d7f565b9050919050565b6000602082019050818103600083015261323881612de5565b9050919050565b6000602082019050818103600083015261325881612e4b565b9050919050565b6000602082019050818103600083015261327881612eb1565b9050919050565b6000602082019050818103600083015261329881612ef1565b9050919050565b600060208201905081810360008301526132b881612f57565b9050919050565b600060208201905081810360008301526132d881612fbd565b9050919050565b600060208201905081810360008301526132f98184613073565b905092915050565b600060208201905061331660008301846130f8565b92915050565b6000604051905081810181811067ffffffffffffffff82111715613343576133426136db565b5b8060405250919050565b600067ffffffffffffffff821115613368576133676136db565b5b601f19601f8301169050602081019050919050565b6000819050602082019050919050565b600081519050919050565b600081519050919050565b6000602082019050919050565b600082825260208201905092915050565b600082825260208201905092915050565b600082825260208201905092915050565b60006133ee82613550565b91506133f983613550565b9250817f7fffffffffffffffffffffffffffffffffffffffffffffffffffffffffffffff038313600083121516156134345761343361364e565b5b817f800000000000000000000000000000000000000000000000000000000000000003831260008312161561346c5761346b61364e565b5b828201905092915050565b600061348282613587565b915061348d83613587565b9250827fffffffffffffffffffffffffffffffffffffffffffffffffffffffffffffffff038211156134c2576134c161364e565b5b828201905092915050565b60006134d882613587565b91506134e383613587565b9250826134f3576134f261367d565b5b828204905092915050565b600061350982613587565b915061351483613587565b9250828210156135275761352661364e565b5b828203905092915050565b600061353d82613567565b9050919050565b60008115159050919050565b6000819050919050565b60008160000b9050919050565b600073ffffffffffffffffffffffffffffffffffffffff82169050919050565b6000819050919050565b82818337600083830152505050565b60005b838110156135be5780820151818401526020810190506135a3565b838111156135cd576000848401525b50505050565b600060028204905060018216806135eb57607f821691505b602082108114156135ff576135fe6136ac565b5b50919050565b600061361082613587565b91507fffffffffffffffffffffffffffffffffffffffffffffffffffffffffffffffff8214156136435761364261364e565b5b600182019050919050565b7f4e487b7100000000000000000000000000000000000000000000000000000000600052601160045260246000fd5b7f4e487b7100000000000000000000000000000000000000000000000000000000600052601260045260246000fd5b7f4e487b7100000000000000000000000000000000000000000000000000000000600052602260045260246000fd5b7f4e487b7100000000000000000000000000000000000000000000000000000000600052604160045260246000fd5b6000601f19601f8301169050919050565b61372481613532565b811461372f57600080fd5b50565b61373b8161355a565b811461374657600080fd5b50565b61375281613587565b811461375d57600080fd5b5056fea2646970667358221220afe3effe16acd96caf928f1c7c035efe8b3d33bd934621d92d8ef6451b48084d64736f6c63430008000033",
  "linkReferences": {},
  "deployedLinkReferences": {}
}