{
  "_format": "hh-sol-artifact-1",
  "contractName": "EcoToken",
  "sourceName": "contracts/EcoToken.sol",
  "abi": [
    {
      "inputs": [
        {
          "internalType": "uint256",
          "name": "_baseValueEth",
          "type": "uint256"
        },
        {
          "internalType": "uint256",
          "name": "_baseValueEcoToken",
          "type": "uint256"
        },
        {
          "internalType": "uint256",
          "name": "_rewardRate",
          "type": "uint256"
        }
      ],
      "stateMutability": "nonpayable",
      "type": "constructor"
    },
    {
      "inputs": [],
      "name": "baseValueEcoToken",
      "outputs": [
        {
          "internalType": "uint256",
          "name": "",
          "type": "uint256"
        }
      ],
      "stateMutability": "view",
      "type": "function"
    },
    {
      "inputs": [],
      "name": "baseValueEth",
      "outputs": [
        {
          "internalType": "uint256",
          "name": "",
          "type": "uint256"
        }
      ],
      "stateMutability": "view",
      "type": "function"
    },
    {
      "inputs": [
        {
          "internalType": "string",
          "name": "_description",
          "type": "string"
        },
        {
          "internalType": "uint256",
          "name": "_reward",
          "type": "uint256"
        }
      ],
      "name": "createEvent",
      "outputs": [],
      "stateMutability": "nonpayable",
      "type": "function"
    },
    {
      "inputs": [],
      "name": "getBaseValueEcoToken",
      "outputs": [
        {
          "internalType": "uint256",
          "name": "",
          "type": "uint256"
        }
      ],
      "stateMutability": "view",
      "type": "function"
    },
    {
      "inputs": [],
      "name": "getBaseValueEth",
      "outputs": [
        {
          "internalType": "uint256",
          "name": "",
          "type": "uint256"
        }
      ],
      "stateMutability": "view",
      "type": "function"
    },
    {
      "inputs": [],
      "name": "getBusinessStatus",
      "outputs": [
        {
          "internalType": "bool",
          "name": "",
          "type": "bool"
        }
      ],
      "stateMutability": "view",
      "type": "function"
    },
    {
      "inputs": [],
      "name": "getClientBalance",
      "outputs": [
        {
          "internalType": "uint256",
          "name": "",
          "type": "uint256"
        }
      ],
      "stateMutability": "view",
      "type": "function"
    },
    {
      "inputs": [
        {
          "internalType": "uint256",
          "name": "_eventIndex",
          "type": "uint256"
        }
      ],
      "name": "getCreatedEvent",
      "outputs": [
        {
          "components": [
            {
              "internalType": "uint256",
              "name": "id",
              "type": "uint256"
            },
            {
              "internalType": "string",
              "name": "description",
              "type": "string"
            },
            {
              "internalType": "uint256",
              "name": "reward",
              "type": "uint256"
            },
            {
              "internalType": "address",
              "name": "organizer",
              "type": "address"
            },
            {
              "internalType": "int256",
              "name": "rating",
              "type": "int256"
            }
          ],
          "internalType": "struct EcoToken.Event",
          "name": "",
          "type": "tuple"
        }
      ],
      "stateMutability": "view",
      "type": "function"
    },
    {
      "inputs": [],
      "name": "getCreatedEventCount",
      "outputs": [
        {
          "internalType": "uint256",
          "name": "",
          "type": "uint256"
        }
      ],
      "stateMutability": "view",
      "type": "function"
    },
    {
      "inputs": [],
      "name": "getCreatedEvents",
      "outputs": [
        {
          "components": [
            {
              "internalType": "uint256",
              "name": "id",
              "type": "uint256"
            },
            {
              "internalType": "string",
              "name": "description",
              "type": "string"
            },
            {
              "internalType": "uint256",
              "name": "reward",
              "type": "uint256"
            },
            {
              "internalType": "address",
              "name": "organizer",
              "type": "address"
            },
            {
              "internalType": "int256",
              "name": "rating",
              "type": "int256"
            }
          ],
          "internalType": "struct EcoToken.Event[]",
          "name": "",
          "type": "tuple[]"
        }
      ],
      "stateMutability": "view",
      "type": "function"
    },
    {
      "inputs": [
        {
          "internalType": "uint256",
          "name": "_eventId",
          "type": "uint256"
        }
      ],
      "name": "getEvent",
      "outputs": [
        {
          "components": [
            {
              "internalType": "uint256",
              "name": "id",
              "type": "uint256"
            },
            {
              "internalType": "string",
              "name": "description",
              "type": "string"
            },
            {
              "internalType": "uint256",
              "name": "reward",
              "type": "uint256"
            },
            {
              "internalType": "address",
              "name": "organizer",
              "type": "address"
            },
            {
              "internalType": "int256",
              "name": "rating",
              "type": "int256"
            }
          ],
          "internalType": "struct EcoToken.Event",
          "name": "",
          "type": "tuple"
        }
      ],
      "stateMutability": "view",
      "type": "function"
    },
    {
      "inputs": [],
      "name": "getEventCount",
      "outputs": [
        {
          "internalType": "uint256",
          "name": "",
          "type": "uint256"
        }
      ],
      "stateMutability": "view",
      "type": "function"
    },
    {
      "inputs": [],
      "name": "getEvents",
      "outputs": [
        {
          "components": [
            {
              "internalType": "uint256",
              "name": "id",
              "type": "uint256"
            },
            {
              "internalType": "string",
              "name": "description",
              "type": "string"
            },
            {
              "internalType": "uint256",
              "name": "reward",
              "type": "uint256"
            },
            {
              "internalType": "address",
              "name": "organizer",
              "type": "address"
            },
            {
              "internalType": "int256",
              "name": "rating",
              "type": "int256"
            }
          ],
          "internalType": "struct EcoToken.Event[]",
          "name": "",
          "type": "tuple[]"
        }
      ],
      "stateMutability": "view",
      "type": "function"
    },
    {
      "inputs": [
        {
          "internalType": "uint256",
          "name": "_eventIndex",
          "type": "uint256"
        }
      ],
      "name": "getParticipatedEvent",
      "outputs": [
        {
          "components": [
            {
              "internalType": "uint256",
              "name": "id",
              "type": "uint256"
            },
            {
              "internalType": "string",
              "name": "description",
              "type": "string"
            },
            {
              "internalType": "uint256",
              "name": "reward",
              "type": "uint256"
            },
            {
              "internalType": "address",
              "name": "organizer",
              "type": "address"
            },
            {
              "internalType": "int256",
              "name": "rating",
              "type": "int256"
            }
          ],
          "internalType": "struct EcoToken.Event",
          "name": "",
          "type": "tuple"
        }
      ],
      "stateMutability": "view",
      "type": "function"
    },
    {
      "inputs": [],
      "name": "getParticipatedEventCount",
      "outputs": [
        {
          "internalType": "uint256",
          "name": "",
          "type": "uint256"
        }
      ],
      "stateMutability": "view",
      "type": "function"
    },
    {
      "inputs": [],
      "name": "getParticipatedEvents",
      "outputs": [
        {
          "components": [
            {
              "internalType": "uint256",
              "name": "id",
              "type": "uint256"
            },
            {
              "internalType": "string",
              "name": "description",
              "type": "string"
            },
            {
              "internalType": "uint256",
              "name": "reward",
              "type": "uint256"
            },
            {
              "internalType": "address",
              "name": "organizer",
              "type": "address"
            },
            {
              "internalType": "int256",
              "name": "rating",
              "type": "int256"
            }
          ],
          "internalType": "struct EcoToken.Event[]",
          "name": "",
          "type": "tuple[]"
        }
      ],
      "stateMutability": "view",
      "type": "function"
    },
    {
      "inputs": [],
      "name": "getRewardRate",
      "outputs": [
        {
          "internalType": "uint256",
          "name": "",
          "type": "uint256"
        }
      ],
      "stateMutability": "view",
      "type": "function"
    },
    {
      "inputs": [
        {
          "internalType": "uint256",
          "name": "_eventId",
          "type": "uint256"
        }
      ],
      "name": "getVoteStatus",
      "outputs": [
        {
          "internalType": "int8",
          "name": "",
          "type": "int8"
        }
      ],
      "stateMutability": "view",
      "type": "function"
    },
    {
      "inputs": [
        {
          "internalType": "address",
          "name": "_participant",
          "type": "address"
        },
        {
          "internalType": "uint256",
          "name": "_eventId",
          "type": "uint256"
        }
      ],
      "name": "markParticipant",
      "outputs": [],
      "stateMutability": "nonpayable",
      "type": "function"
    },
    {
      "inputs": [],
      "name": "registerAsBusiness",
      "outputs": [],
      "stateMutability": "payable",
      "type": "function"
    },
    {
      "inputs": [],
      "name": "rewardRate",
      "outputs": [
        {
          "internalType": "uint256",
          "name": "",
          "type": "uint256"
        }
      ],
      "stateMutability": "view",
      "type": "function"
    },
    {
      "inputs": [
        {
          "internalType": "address",
          "name": "_to",
          "type": "address"
        },
        {
          "internalType": "uint256",
          "name": "_amount",
          "type": "uint256"
        }
      ],
      "name": "transferEcotokens",
      "outputs": [],
      "stateMutability": "nonpayable",
      "type": "function"
    },
    {
      "inputs": [
        {
          "internalType": "uint256",
          "name": "_eventId",
          "type": "uint256"
        },
        {
          "internalType": "int8",
          "name": "_vote",
          "type": "int8"
        }
      ],
      "name": "voteForEvent",
      "outputs": [],
      "stateMutability": "nonpayable",
      "type": "function"
    }
  ],
  "bytecode": "0x60806040523480156200001157600080fd5b5060405162003b4038038062003b4083398181016040528101906200003791906200006c565b826000819055508160018190555080600281905550505050620000e6565b6000815190506200006681620000cc565b92915050565b6000806000606084860312156200008257600080fd5b6000620000928682870162000055565b9350506020620000a58682870162000055565b9250506040620000b88682870162000055565b9150509250925092565b6000819050919050565b620000d781620000c2565b8114620000e357600080fd5b50565b613a4a80620000f66000396000f3fe6080604052600436106101405760003560e01c80637e1a3786116100b6578063c8ac59c11161006f578063c8ac59c114610450578063d9e48f5c1461048d578063e74e5de2146104b8578063e8316c6e146104c2578063f604423a146104ed578063f887fea21461051657610140565b80637e1a3786146103525780637e6ee1901461037d5780639a4d4385146103a8578063aad891bb146103d1578063b0aacf01146103fc578063b912452c1461042557610140565b8063611d3f3b11610108578063611d3f3b1461022e57806363a4ad571461025957806369dd559d146102965780636d1884e0146102c1578063715f3693146102fe5780637b0a47ee1461032757610140565b80630519bb83146101455780631113c15f1461018257806312487a59146101ad57806325a9d450146101d8578063404aa8f914610203575b600080fd5b34801561015157600080fd5b5061016c60048036038101906101679190612bec565b610541565b60405161017991906133b8565b60405180910390f35b34801561018e57600080fd5b506101976106d5565b6040516101a491906135b5565b60405180910390f35b3480156101b957600080fd5b506101c26106db565b6040516101cf91906135b5565b60405180910390f35b3480156101e457600080fd5b506101ed6106e1565b6040516101fa91906135b5565b60405180910390f35b34801561020f57600080fd5b5061021861072b565b604051610225919061337b565b60405180910390f35b34801561023a57600080fd5b50610243610890565b60405161025091906135b5565b60405180910390f35b34801561026557600080fd5b50610280600480360381019061027b9190612bec565b61096a565b60405161028d9190613593565b60405180910390f35b3480156102a257600080fd5b506102ab610c66565b6040516102b8919061339d565b60405180910390f35b3480156102cd57600080fd5b506102e860048036038101906102e39190612bec565b610cbd565b6040516102f59190613593565b60405180910390f35b34801561030a57600080fd5b5061032560048036038101906103209190612b5c565b610e6c565b005b34801561033357600080fd5b5061033c6111f3565b60405161034991906135b5565b60405180910390f35b34801561035e57600080fd5b506103676111f9565b60405161037491906135b5565b60405180910390f35b34801561038957600080fd5b50610392611203565b60405161039f91906135b5565b60405180910390f35b3480156103b457600080fd5b506103cf60048036038101906103ca9190612b98565b61120d565b005b3480156103dd57600080fd5b506103e6611446565b6040516103f3919061337b565b60405180910390f35b34801561040857600080fd5b50610423600480360381019061041e9190612c15565b61181e565b005b34801561043157600080fd5b5061043a611bbc565b60405161044791906135b5565b60405180910390f35b34801561045c57600080fd5b5061047760048036038101906104729190612bec565b611c95565b6040516104849190613593565b60405180910390f35b34801561049957600080fd5b506104a2611f92565b6040516104af91906135b5565b60405180910390f35b6104c0611f9f565b005b3480156104ce57600080fd5b506104d76120ec565b6040516104e4919061337b565b60405180910390f35b3480156104f957600080fd5b50610514600480360381019061050f9190612b5c565b6124c3565b005b34801561052257600080fd5b5061052b6129c4565b60405161053891906135b5565b60405180910390f35b6000600360003373ffffffffffffffffffffffffffffffffffffffff1673ffffffffffffffffffffffffffffffffffffffff16815260200190815260200160002060010160009054906101000a900460ff16156105d3576040517f08c379a00000000000000000000000000000000000000000000000000000000081526004016105ca906134f3565b60405180910390fd5b600460003373ffffffffffffffffffffffffffffffffffffffff1673ffffffffffffffffffffffffffffffffffffffff168152602001908152602001600020600083815260200190815260200160002060009054906101000a900460ff16610670576040517f08c379a000000000000000000000000000000000000000000000000000000000815260040161066790613553565b60405180910390fd5b600560003373ffffffffffffffffffffffffffffffffffffffff1673ffffffffffffffffffffffffffffffffffffffff168152602001908152602001600020600083815260200190815260200160002060009054906101000a900460000b9050919050565b60005481565b60015481565b6000600360003373ffffffffffffffffffffffffffffffffffffffff1673ffffffffffffffffffffffffffffffffffffffff16815260200190815260200160002060000154905090565b60606006805480602002602001604051908101604052809291908181526020016000905b8282101561088757838290600052602060002090600502016040518060a00160405290816000820154815260200160018201805461078c90613887565b80601f01602080910402602001604051908101604052809291908181526020018280546107b890613887565b80156108055780601f106107da57610100808354040283529160200191610805565b820191906000526020600020905b8154815290600101906020018083116107e857829003601f168201915b50505050508152602001600282015481526020016003820160009054906101000a900473ffffffffffffffffffffffffffffffffffffffff1673ffffffffffffffffffffffffffffffffffffffff1673ffffffffffffffffffffffffffffffffffffffff1681526020016004820154815250508152602001906001019061074f565b50505050905090565b6000600360003373ffffffffffffffffffffffffffffffffffffffff1673ffffffffffffffffffffffffffffffffffffffff16815260200190815260200160002060010160009054906101000a900460ff1615610922576040517f08c379a0000000000000000000000000000000000000000000000000000000008152600401610919906134f3565b60405180910390fd5b600860003373ffffffffffffffffffffffffffffffffffffffff1673ffffffffffffffffffffffffffffffffffffffff16815260200190815260200160002080549050905090565b6109726129cd565b600360003373ffffffffffffffffffffffffffffffffffffffff1673ffffffffffffffffffffffffffffffffffffffff16815260200190815260200160002060010160009054906101000a900460ff16610a01576040517f08c379a00000000000000000000000000000000000000000000000000000000081526004016109f8906134b3565b60405180910390fd5b600760003373ffffffffffffffffffffffffffffffffffffffff1673ffffffffffffffffffffffffffffffffffffffff168152602001908152602001600020805490508210610a85576040517f08c379a0000000000000000000000000000000000000000000000000000000008152600401610a7c90613513565b60405180910390fd5b6006600760003373ffffffffffffffffffffffffffffffffffffffff1673ffffffffffffffffffffffffffffffffffffffff1681526020019081526020016000208381548110610afe577f4e487b7100000000000000000000000000000000000000000000000000000000600052603260045260246000fd5b906000526020600020015481548110610b40577f4e487b7100000000000000000000000000000000000000000000000000000000600052603260045260246000fd5b90600052602060002090600502016040518060a001604052908160008201548152602001600182018054610b7390613887565b80601f0160208091040260200160405190810160405280929190818152602001828054610b9f90613887565b8015610bec5780601f10610bc157610100808354040283529160200191610bec565b820191906000526020600020905b815481529060010190602001808311610bcf57829003601f168201915b50505050508152602001600282015481526020016003820160009054906101000a900473ffffffffffffffffffffffffffffffffffffffff1673ffffffffffffffffffffffffffffffffffffffff1673ffffffffffffffffffffffffffffffffffffffff1681526020016004820154815250509050919050565b6000600360003373ffffffffffffffffffffffffffffffffffffffff1673ffffffffffffffffffffffffffffffffffffffff16815260200190815260200160002060010160009054906101000a900460ff16905090565b610cc56129cd565b6006805490508210610d0c576040517f08c379a0000000000000000000000000000000000000000000000000000000008152600401610d0390613513565b60405180910390fd5b60068281548110610d46577f4e487b7100000000000000000000000000000000000000000000000000000000600052603260045260246000fd5b90600052602060002090600502016040518060a001604052908160008201548152602001600182018054610d7990613887565b80601f0160208091040260200160405190810160405280929190818152602001828054610da590613887565b8015610df25780601f10610dc757610100808354040283529160200191610df2565b820191906000526020600020905b815481529060010190602001808311610dd557829003601f168201915b50505050508152602001600282015481526020016003820160009054906101000a900473ffffffffffffffffffffffffffffffffffffffff1673ffffffffffffffffffffffffffffffffffffffff1673ffffffffffffffffffffffffffffffffffffffff1681526020016004820154815250509050919050565b600360003373ffffffffffffffffffffffffffffffffffffffff1673ffffffffffffffffffffffffffffffffffffffff16815260200190815260200160002060010160009054906101000a900460ff1615610efc576040517f08c379a0000000000000000000000000000000000000000000000000000000008152600401610ef3906134f3565b60405180910390fd5b600360008373ffffffffffffffffffffffffffffffffffffffff1673ffffffffffffffffffffffffffffffffffffffff16815260200190815260200160002060010160009054906101000a900460ff16610f8b576040517f08c379a0000000000000000000000000000000000000000000000000000000008152600401610f8290613453565b60405180910390fd5b80600360003373ffffffffffffffffffffffffffffffffffffffff1673ffffffffffffffffffffffffffffffffffffffff1681526020019081526020016000206000015410158015610fdd5750600081115b61101c576040517f08c379a000000000000000000000000000000000000000000000000000000000815260040161101390613433565b60405180910390fd5b600080600360008573ffffffffffffffffffffffffffffffffffffffff1673ffffffffffffffffffffffffffffffffffffffff1681526020019081526020016000206002015413156110bb57600254600360008573ffffffffffffffffffffffffffffffffffffffff1673ffffffffffffffffffffffffffffffffffffffff168152602001908152602001600020600201546110b89190613781565b90505b81600360003373ffffffffffffffffffffffffffffffffffffffff1673ffffffffffffffffffffffffffffffffffffffff1681526020019081526020016000206000015461110991906137b2565b600360003373ffffffffffffffffffffffffffffffffffffffff1673ffffffffffffffffffffffffffffffffffffffff168152602001908152602001600020600001819055508082600360008673ffffffffffffffffffffffffffffffffffffffff1673ffffffffffffffffffffffffffffffffffffffff1681526020019081526020016000206000015461119e919061372b565b6111a8919061372b565b600360008573ffffffffffffffffffffffffffffffffffffffff1673ffffffffffffffffffffffffffffffffffffffff16815260200190815260200160002060000181905550505050565b60025481565b6000600254905090565b6000600154905090565b600360003373ffffffffffffffffffffffffffffffffffffffff1673ffffffffffffffffffffffffffffffffffffffff16815260200190815260200160002060010160009054906101000a900460ff1661129c576040517f08c379a0000000000000000000000000000000000000000000000000000000008152600401611293906134b3565b60405180910390fd5b60018110156112e0576040517f08c379a00000000000000000000000000000000000000000000000000000000081526004016112d790613413565b60405180910390fd5b60006040518060a0016040528060068054905081526020018481526020018381526020013373ffffffffffffffffffffffffffffffffffffffff168152602001600081525090506006819080600181540180825580915050600190039060005260206000209060050201600090919091909150600082015181600001556020820151816001019080519060200190611379929190612a12565b506040820151816002015560608201518160030160006101000a81548173ffffffffffffffffffffffffffffffffffffffff021916908373ffffffffffffffffffffffffffffffffffffffff160217905550608082015181600401555050600760003373ffffffffffffffffffffffffffffffffffffffff1673ffffffffffffffffffffffffffffffffffffffff16815260200190815260200160002081600001519080600181540180825580915050600190039060005260206000200160009091909190915055505050565b6060600360003373ffffffffffffffffffffffffffffffffffffffff1673ffffffffffffffffffffffffffffffffffffffff16815260200190815260200160002060010160009054906101000a900460ff16156114d8576040517f08c379a00000000000000000000000000000000000000000000000000000000081526004016114cf906134f3565b60405180910390fd5b6000600860003373ffffffffffffffffffffffffffffffffffffffff1673ffffffffffffffffffffffffffffffffffffffff1681526020019081526020016000208054905067ffffffffffffffff81111561155c577f4e487b7100000000000000000000000000000000000000000000000000000000600052604160045260246000fd5b60405190808252806020026020018201604052801561159557816020015b6115826129cd565b81526020019060019003908161157a5790505b50905060005b600860003373ffffffffffffffffffffffffffffffffffffffff1673ffffffffffffffffffffffffffffffffffffffff16815260200190815260200160002080549050811015611816576006600860003373ffffffffffffffffffffffffffffffffffffffff1673ffffffffffffffffffffffffffffffffffffffff168152602001908152602001600020828154811061165e577f4e487b7100000000000000000000000000000000000000000000000000000000600052603260045260246000fd5b9060005260206000200154815481106116a0577f4e487b7100000000000000000000000000000000000000000000000000000000600052603260045260246000fd5b90600052602060002090600502016040518060a0016040529081600082015481526020016001820180546116d390613887565b80601f01602080910402602001604051908101604052809291908181526020018280546116ff90613887565b801561174c5780601f106117215761010080835404028352916020019161174c565b820191906000526020600020905b81548152906001019060200180831161172f57829003601f168201915b50505050508152602001600282015481526020016003820160009054906101000a900473ffffffffffffffffffffffffffffffffffffffff1673ffffffffffffffffffffffffffffffffffffffff1673ffffffffffffffffffffffffffffffffffffffff1681526020016004820154815250508282815181106117f8577f4e487b7100000000000000000000000000000000000000000000000000000000600052603260045260246000fd5b6020026020010181905250808061180e906138b9565b91505061159b565b508091505090565b600360003373ffffffffffffffffffffffffffffffffffffffff1673ffffffffffffffffffffffffffffffffffffffff16815260200190815260200160002060010160009054906101000a900460ff16156118ae576040517f08c379a00000000000000000000000000000000000000000000000000000000081526004016118a5906134f3565b60405180910390fd5b7fffffffffffffffffffffffffffffffffffffffffffffffffffffffffffffffff8160000b14806118e2575060018160000b145b611921576040517f08c379a000000000000000000000000000000000000000000000000000000000815260040161191890613573565b60405180910390fd5b600460003373ffffffffffffffffffffffffffffffffffffffff1673ffffffffffffffffffffffffffffffffffffffff168152602001908152602001600020600083815260200190815260200160002060009054906101000a900460ff166119be576040517f08c379a00000000000000000000000000000000000000000000000000000000081526004016119b5906134d3565b60405180910390fd5b6000600560003373ffffffffffffffffffffffffffffffffffffffff1673ffffffffffffffffffffffffffffffffffffffff168152602001908152602001600020600084815260200190815260200160002060009054906101000a900460000b60000b14611a61576040517f08c379a0000000000000000000000000000000000000000000000000000000008152600401611a58906133f3565b60405180910390fd5b600060068381548110611a9d577f4e487b7100000000000000000000000000000000000000000000000000000000600052603260045260246000fd5b906000526020600020906005020190508160000b816004016000828254611ac49190613697565b925050819055508160000b600360008360030160009054906101000a900473ffffffffffffffffffffffffffffffffffffffff1673ffffffffffffffffffffffffffffffffffffffff1673ffffffffffffffffffffffffffffffffffffffff1681526020019081526020016000206002016000828254611b449190613697565b9250508190555081600560003373ffffffffffffffffffffffffffffffffffffffff1673ffffffffffffffffffffffffffffffffffffffff168152602001908152602001600020600085815260200190815260200160002060006101000a81548160ff021916908360000b60ff160217905550505050565b6000600360003373ffffffffffffffffffffffffffffffffffffffff1673ffffffffffffffffffffffffffffffffffffffff16815260200190815260200160002060010160009054906101000a900460ff16611c4d576040517f08c379a0000000000000000000000000000000000000000000000000000000008152600401611c44906134b3565b60405180910390fd5b600760003373ffffffffffffffffffffffffffffffffffffffff1673ffffffffffffffffffffffffffffffffffffffff16815260200190815260200160002080549050905090565b611c9d6129cd565b600360003373ffffffffffffffffffffffffffffffffffffffff1673ffffffffffffffffffffffffffffffffffffffff16815260200190815260200160002060010160009054906101000a900460ff1615611d2d576040517f08c379a0000000000000000000000000000000000000000000000000000000008152600401611d24906134f3565b60405180910390fd5b600860003373ffffffffffffffffffffffffffffffffffffffff1673ffffffffffffffffffffffffffffffffffffffff168152602001908152602001600020805490508210611db1576040517f08c379a0000000000000000000000000000000000000000000000000000000008152600401611da890613513565b60405180910390fd5b6006600860003373ffffffffffffffffffffffffffffffffffffffff1673ffffffffffffffffffffffffffffffffffffffff1681526020019081526020016000208381548110611e2a577f4e487b7100000000000000000000000000000000000000000000000000000000600052603260045260246000fd5b906000526020600020015481548110611e6c577f4e487b7100000000000000000000000000000000000000000000000000000000600052603260045260246000fd5b90600052602060002090600502016040518060a001604052908160008201548152602001600182018054611e9f90613887565b80601f0160208091040260200160405190810160405280929190818152602001828054611ecb90613887565b8015611f185780601f10611eed57610100808354040283529160200191611f18565b820191906000526020600020905b815481529060010190602001808311611efb57829003601f168201915b50505050508152602001600282015481526020016003820160009054906101000a900473ffffffffffffffffffffffffffffffffffffffff1673ffffffffffffffffffffffffffffffffffffffff1673ffffffffffffffffffffffffffffffffffffffff1681526020016004820154815250509050919050565b6000600680549050905090565b600360003373ffffffffffffffffffffffffffffffffffffffff1673ffffffffffffffffffffffffffffffffffffffff16815260200190815260200160002060010160009054906101000a900460ff161561202f576040517f08c379a0000000000000000000000000000000000000000000000000000000008152600401612026906134f3565b60405180910390fd5b600054341015612074576040517f08c379a000000000000000000000000000000000000000000000000000000000815260040161206b90613533565b60405180910390fd5b6000600360003373ffffffffffffffffffffffffffffffffffffffff1673ffffffffffffffffffffffffffffffffffffffff1681526020019081526020016000209050600154816000018190555060018160010160006101000a81548160ff0219169083151502179055506000816002018190555050565b6060600360003373ffffffffffffffffffffffffffffffffffffffff1673ffffffffffffffffffffffffffffffffffffffff16815260200190815260200160002060010160009054906101000a900460ff1661217d576040517f08c379a0000000000000000000000000000000000000000000000000000000008152600401612174906134b3565b60405180910390fd5b6000600760003373ffffffffffffffffffffffffffffffffffffffff1673ffffffffffffffffffffffffffffffffffffffff1681526020019081526020016000208054905067ffffffffffffffff811115612201577f4e487b7100000000000000000000000000000000000000000000000000000000600052604160045260246000fd5b60405190808252806020026020018201604052801561223a57816020015b6122276129cd565b81526020019060019003908161221f5790505b50905060005b600760003373ffffffffffffffffffffffffffffffffffffffff1673ffffffffffffffffffffffffffffffffffffffff168152602001908152602001600020805490508110156124bb576006600760003373ffffffffffffffffffffffffffffffffffffffff1673ffffffffffffffffffffffffffffffffffffffff1681526020019081526020016000208281548110612303577f4e487b7100000000000000000000000000000000000000000000000000000000600052603260045260246000fd5b906000526020600020015481548110612345577f4e487b7100000000000000000000000000000000000000000000000000000000600052603260045260246000fd5b90600052602060002090600502016040518060a00160405290816000820154815260200160018201805461237890613887565b80601f01602080910402602001604051908101604052809291908181526020018280546123a490613887565b80156123f15780601f106123c6576101008083540402835291602001916123f1565b820191906000526020600020905b8154815290600101906020018083116123d457829003601f168201915b50505050508152602001600282015481526020016003820160009054906101000a900473ffffffffffffffffffffffffffffffffffffffff1673ffffffffffffffffffffffffffffffffffffffff1673ffffffffffffffffffffffffffffffffffffffff16815260200160048201548152505082828151811061249d577f4e487b7100000000000000000000000000000000000000000000000000000000600052603260045260246000fd5b602002602001018190525080806124b3906138b9565b915050612240565b508091505090565b600360003373ffffffffffffffffffffffffffffffffffffffff1673ffffffffffffffffffffffffffffffffffffffff16815260200190815260200160002060010160009054906101000a900460ff16612552576040517f08c379a0000000000000000000000000000000000000000000000000000000008152600401612549906134b3565b60405180910390fd5b60006006828154811061258e577f4e487b7100000000000000000000000000000000000000000000000000000000600052603260045260246000fd5b906000526020600020906005020190503373ffffffffffffffffffffffffffffffffffffffff168160030160009054906101000a900473ffffffffffffffffffffffffffffffffffffffff1673ffffffffffffffffffffffffffffffffffffffff1614612630576040517f08c379a000000000000000000000000000000000000000000000000000000000815260040161262790613473565b60405180910390fd5b600360008473ffffffffffffffffffffffffffffffffffffffff1673ffffffffffffffffffffffffffffffffffffffff16815260200190815260200160002060010160009054906101000a900460ff16156126c0576040517f08c379a00000000000000000000000000000000000000000000000000000000081526004016126b790613493565b60405180910390fd5b60011515600460008573ffffffffffffffffffffffffffffffffffffffff1673ffffffffffffffffffffffffffffffffffffffff168152602001908152602001600020600084815260200190815260200160002060009054906101000a900460ff1615151415612765576040517f08c379a000000000000000000000000000000000000000000000000000000000815260040161275c906133d3565b60405180910390fd5b8060020154600360008360030160009054906101000a900473ffffffffffffffffffffffffffffffffffffffff1673ffffffffffffffffffffffffffffffffffffffff1673ffffffffffffffffffffffffffffffffffffffff168152602001908152602001600020600001541015612812576040517f08c379a000000000000000000000000000000000000000000000000000000000815260040161280990613433565b60405180910390fd5b6001600460008573ffffffffffffffffffffffffffffffffffffffff1673ffffffffffffffffffffffffffffffffffffffff168152602001908152602001600020600084815260200190815260200160002060006101000a81548160ff021916908315150217905550600860008473ffffffffffffffffffffffffffffffffffffffff1673ffffffffffffffffffffffffffffffffffffffff1681526020019081526020016000208290806001815401808255809150506001900390600052602060002001600090919091909150558060020154600360008573ffffffffffffffffffffffffffffffffffffffff1673ffffffffffffffffffffffffffffffffffffffff1681526020019081526020016000206000016000828254612937919061372b565b925050819055508060020154600360008360030160009054906101000a900473ffffffffffffffffffffffffffffffffffffffff1673ffffffffffffffffffffffffffffffffffffffff1673ffffffffffffffffffffffffffffffffffffffff16815260200190815260200160002060000160008282546129b891906137b2565b92505081905550505050565b60008054905090565b6040518060a00160405280600081526020016060815260200160008152602001600073ffffffffffffffffffffffffffffffffffffffff168152602001600081525090565b828054612a1e90613887565b90600052602060002090601f016020900481019282612a405760008555612a87565b82601f10612a5957805160ff1916838001178555612a87565b82800160010185558215612a87579182015b82811115612a86578251825591602001919060010190612a6b565b5b509050612a949190612a98565b5090565b5b80821115612ab1576000816000905550600101612a99565b5090565b6000612ac8612ac384613601565b6135d0565b905082815260208101848484011115612ae057600080fd5b612aeb848285613845565b509392505050565b600081359050612b02816139cf565b92915050565b600081359050612b17816139e6565b92915050565b600082601f830112612b2e57600080fd5b8135612b3e848260208601612ab5565b91505092915050565b600081359050612b56816139fd565b92915050565b60008060408385031215612b6f57600080fd5b6000612b7d85828601612af3565b9250506020612b8e85828601612b47565b9150509250929050565b60008060408385031215612bab57600080fd5b600083013567ffffffffffffffff811115612bc557600080fd5b612bd185828601612b1d565b9250506020612be285828601612b47565b9150509250929050565b600060208284031215612bfe57600080fd5b6000612c0c84828501612b47565b91505092915050565b60008060408385031215612c2857600080fd5b6000612c3685828601612b47565b9250506020612c4785828601612b08565b9150509250929050565b6000612c5d8383613271565b905092915050565b612c6e816137e6565b82525050565b6000612c7f82613641565b612c898185613664565b935083602082028501612c9b85613631565b8060005b85811015612cd75784840389528151612cb88582612c51565b9450612cc383613657565b925060208a01995050600181019050612c9f565b50829750879550505050505092915050565b612cf2816137f8565b82525050565b612d0181613804565b82525050565b612d108161380e565b82525050565b6000612d218261364c565b612d2b8185613675565b9350612d3b818560208601613854565b612d44816139be565b840191505092915050565b6000612d5c603583613686565b91507f596f752063616e6e6f74206d61726b2061207061727469636970616e7420696e60008301527f207468652073616d65206576656e7420747769636500000000000000000000006020830152604082019050919050565b6000612dc2602383613686565b91507f596f752063616e206f6e6c7920766f7465206f6e636520666f7220616e20657660008301527f656e7400000000000000000000000000000000000000000000000000000000006020830152604082019050919050565b6000612e28602483613686565b91507f5265776172642073686f756c64206265206174206c6561737420312045636f5460008301527f6f6b656e000000000000000000000000000000000000000000000000000000006020830152604082019050919050565b6000612e8e601683613686565b91507f496e73756666696369656e742045636f546f6b656e73000000000000000000006000830152602082019050919050565b6000612ece603483613686565b91507f596f752063616e206f6e6c79207472616e736665722045636f546f6b656e732060008301527f746f206120627573696e65737320636c69656e740000000000000000000000006020830152604082019050919050565b6000612f34602e83613686565b91507f4f6e6c7920746865206576656e74206f7267616e697a65722063616e206d617260008301527f6b207061727469636970616e74730000000000000000000000000000000000006020830152604082019050919050565b6000612f9a603783613686565b91507f4f6e6c79206e6f6e2d627573696e65737320636c69656e74732063616e20626560008301527f206d61726b6564206173207061727469636970616e74730000000000000000006020830152604082019050919050565b6000613000602c83613686565b91507f4f6e6c7920627573696e65737320636c69656e74732063616e2063616c6c207460008301527f6869732066756e6374696f6e00000000000000000000000000000000000000006020830152604082019050919050565b6000613066602f83613686565b91507f596f75206d75737420706172746963697061746520696e20746865206576656e60008301527f74206265666f726520766f74696e6700000000000000000000000000000000006020830152604082019050919050565b60006130cc603083613686565b91507f4f6e6c79206e6f6e2d627573696e65737320636c69656e74732063616e20636160008301527f6c6c20746869732066756e6374696f6e000000000000000000000000000000006020830152604082019050919050565b6000613132601483613686565b91507f4576656e7420646f6573206e6f742065786973740000000000000000000000006000830152602082019050919050565b6000613172602883613686565b91507f496e73756666696369656e742045746865722073656e7420666f72207265676960008301527f7374726174696f6e0000000000000000000000000000000000000000000000006020830152604082019050919050565b60006131d8602683613686565b91507f596f752068617665206e6f742070617274696369706174656420696e2074686560008301527f206576656e7400000000000000000000000000000000000000000000000000006020830152604082019050919050565b600061323e601283613686565b91507f496e76616c696420766f74652076616c756500000000000000000000000000006000830152602082019050919050565b600060a083016000830151613289600086018261335d565b50602083015184820360208601526132a18282612d16565b91505060408301516132b6604086018261335d565b5060608301516132c96060860182612c65565b5060808301516132dc6080860182612cf8565b508091505092915050565b600060a0830160008301516132ff600086018261335d565b50602083015184820360208601526133178282612d16565b915050604083015161332c604086018261335d565b50606083015161333f6060860182612c65565b5060808301516133526080860182612cf8565b508091505092915050565b6133668161383b565b82525050565b6133758161383b565b82525050565b600060208201905081810360008301526133958184612c74565b905092915050565b60006020820190506133b26000830184612ce9565b92915050565b60006020820190506133cd6000830184612d07565b92915050565b600060208201905081810360008301526133ec81612d4f565b9050919050565b6000602082019050818103600083015261340c81612db5565b9050919050565b6000602082019050818103600083015261342c81612e1b565b9050919050565b6000602082019050818103600083015261344c81612e81565b9050919050565b6000602082019050818103600083015261346c81612ec1565b9050919050565b6000602082019050818103600083015261348c81612f27565b9050919050565b600060208201905081810360008301526134ac81612f8d565b9050919050565b600060208201905081810360008301526134cc81612ff3565b9050919050565b600060208201905081810360008301526134ec81613059565b9050919050565b6000602082019050818103600083015261350c816130bf565b9050919050565b6000602082019050818103600083015261352c81613125565b9050919050565b6000602082019050818103600083015261354c81613165565b9050919050565b6000602082019050818103600083015261356c816131cb565b9050919050565b6000602082019050818103600083015261358c81613231565b9050919050565b600060208201905081810360008301526135ad81846132e7565b905092915050565b60006020820190506135ca600083018461336c565b92915050565b6000604051905081810181811067ffffffffffffffff821117156135f7576135f661398f565b5b8060405250919050565b600067ffffffffffffffff82111561361c5761361b61398f565b5b601f19601f8301169050602081019050919050565b6000819050602082019050919050565b600081519050919050565b600081519050919050565b6000602082019050919050565b600082825260208201905092915050565b600082825260208201905092915050565b600082825260208201905092915050565b60006136a282613804565b91506136ad83613804565b9250817f7fffffffffffffffffffffffffffffffffffffffffffffffffffffffffffffff038313600083121516156136e8576136e7613902565b5b817f80000000000000000000000000000000000000000000000000000000000000000383126000831216156137205761371f613902565b5b828201905092915050565b60006137368261383b565b91506137418361383b565b9250827fffffffffffffffffffffffffffffffffffffffffffffffffffffffffffffffff0382111561377657613775613902565b5b828201905092915050565b600061378c8261383b565b91506137978361383b565b9250826137a7576137a6613931565b5b828204905092915050565b60006137bd8261383b565b91506137c88361383b565b9250828210156137db576137da613902565b5b828203905092915050565b60006137f18261381b565b9050919050565b60008115159050919050565b6000819050919050565b60008160000b9050919050565b600073ffffffffffffffffffffffffffffffffffffffff82169050919050565b6000819050919050565b82818337600083830152505050565b60005b83811015613872578082015181840152602081019050613857565b83811115613881576000848401525b50505050565b6000600282049050600182168061389f57607f821691505b602082108114156138b3576138b2613960565b5b50919050565b60006138c48261383b565b91507fffffffffffffffffffffffffffffffffffffffffffffffffffffffffffffffff8214156138f7576138f6613902565b5b600182019050919050565b7f4e487b7100000000000000000000000000000000000000000000000000000000600052601160045260246000fd5b7f4e487b7100000000000000000000000000000000000000000000000000000000600052601260045260246000fd5b7f4e487b7100000000000000000000000000000000000000000000000000000000600052602260045260246000fd5b7f4e487b7100000000000000000000000000000000000000000000000000000000600052604160045260246000fd5b6000601f19601f8301169050919050565b6139d8816137e6565b81146139e357600080fd5b50565b6139ef8161380e565b81146139fa57600080fd5b50565b613a068161383b565b8114613a1157600080fd5b5056fea2646970667358221220a9f9c8701b9eec99bc24e10500f9809a2b070b0cb545ceb5ec640e14793a3d0764736f6c63430008000033",
  "linkReferences": {},
  "deployedLinkReferences": {}
}